{
    "_format": "hh-sol-artifact-1",
    "contractName": "PiggyBank",
    "sourceName": "contracts/PiggyBank.sol",
    "abi": [
        {
            "inputs": [],
            "name": "ReentrancyGuardReentrantCall",
            "type": "error"
        },
        {
            "anonymous": false,
            "inputs": [
                {
                    "indexed": true,
                    "internalType": "address",
                    "name": "user",
                    "type": "address"
                },
                {
                    "indexed": false,
                    "internalType": "uint256",
                    "name": "amount",
                    "type": "uint256"
                }
            ],
            "name": "Deposited",
            "type": "event"
        },
        {
            "anonymous": false,
            "inputs": [
                {
                    "indexed": true,
                    "internalType": "address",
                    "name": "user",
                    "type": "address"
                },
                {
                    "indexed": false,
                    "internalType": "uint256",
                    "name": "amount",
                    "type": "uint256"
                }
            ],
            "name": "Withdrawn",
            "type": "event"
        },
        {
            "stateMutability": "payable",
            "type": "fallback"
        },
        {
            "inputs": [
                {
                    "internalType": "address",
                    "name": "",
                    "type": "address"
                }
            ],
            "name": "balances",
            "outputs": [
                {
                    "internalType": "uint256",
                    "name": "",
                    "type": "uint256"
                }
            ],
            "stateMutability": "view",
            "type": "function"
        },
        {
            "inputs": [],
            "name": "deposit",
            "outputs": [],
            "stateMutability": "payable",
            "type": "function"
        },
        {
            "inputs": [
                {
                    "internalType": "address",
                    "name": "user",
                    "type": "address"
                }
            ],
            "name": "getBalanceOf",
            "outputs": [
                {
                    "internalType": "uint256",
                    "name": "",
                    "type": "uint256"
                }
            ],
            "stateMutability": "view",
            "type": "function"
        },
        {
            "inputs": [],
            "name": "withdraw",
            "outputs": [],
            "stateMutability": "nonpayable",
            "type": "function"
        },
        {
            "stateMutability": "payable",
            "type": "receive"
        }
    ],
    "bytecode": "0x6080604052348015600f57600080fd5b506001600081905550610806806100276000396000f3fe6080604052600436106100435760003560e01c806327e235e31461008d5780633ccfd60b146100ca5780639b96eece146100e1578063d0e30db01461011e57610052565b3661005257610050610128565b005b6040517f08c379a000000000000000000000000000000000000000000000000000000000815260040161008490610516565b60405180910390fd5b34801561009957600080fd5b506100b460048036038101906100af9190610599565b610208565b6040516100c191906105df565b60405180910390f35b3480156100d657600080fd5b506100df610220565b005b3480156100ed57600080fd5b5061010860048036038101906101039190610599565b6103fa565b60405161011591906105df565b60405180910390f35b610126610128565b005b6000341161016b576040517f08c379a000000000000000000000000000000000000000000000000000000000815260040161016290610646565b60405180910390fd5b34600160003373ffffffffffffffffffffffffffffffffffffffff1673ffffffffffffffffffffffffffffffffffffffff168152602001908152602001600020600082825401925050819055503373ffffffffffffffffffffffffffffffffffffffff167f2da466a7b24304f47e87fa2e1e5a81b9831ce54fec19055ce277ca2f39ba42c4346040516101fe91906105df565b60405180910390a2565b60016020528060005260406000206000915090505481565b610228610443565b6000600160003373ffffffffffffffffffffffffffffffffffffffff1673ffffffffffffffffffffffffffffffffffffffff168152602001908152602001600020549050600081116102af576040517f08c379a00000000000000000000000000000000000000000000000000000000081526004016102a6906106d8565b60405180910390fd5b6000600160003373ffffffffffffffffffffffffffffffffffffffff1673ffffffffffffffffffffffffffffffffffffffff1681526020019081526020016000208190555060003373ffffffffffffffffffffffffffffffffffffffff168260405161031a90610729565b60006040518083038185875af1925050503d8060008114610357576040519150601f19603f3d011682016040523d82523d6000602084013e61035c565b606091505b50509050806103a0576040517f08c379a0000000000000000000000000000000000000000000000000000000008152600401610397906107b0565b60405180910390fd5b3373ffffffffffffffffffffffffffffffffffffffff167f7084f5476618d8e60b11ef0d7d3f06914655adb8793e28ff7f018d4c76d505d5836040516103e691906105df565b60405180910390a250506103f8610489565b565b6000600160008373ffffffffffffffffffffffffffffffffffffffff1673ffffffffffffffffffffffffffffffffffffffff168152602001908152602001600020549050919050565b60026000540361047f576040517f3ee5aeb500000000000000000000000000000000000000000000000000000000815260040160405180910390fd5b6002600081905550565b6001600081905550565b600082825260208201905092915050565b7f46616c6c6261636b3a2046756e6374696f6e20646f6573206e6f74206578697360008201527f7400000000000000000000000000000000000000000000000000000000000000602082015250565b6000610500602183610493565b915061050b826104a4565b604082019050919050565b6000602082019050818103600083015261052f816104f3565b9050919050565b600080fd5b600073ffffffffffffffffffffffffffffffffffffffff82169050919050565b60006105668261053b565b9050919050565b6105768161055b565b811461058157600080fd5b50565b6000813590506105938161056d565b92915050565b6000602082840312156105af576105ae610536565b5b60006105bd84828501610584565b91505092915050565b6000819050919050565b6105d9816105c6565b82525050565b60006020820190506105f460008301846105d0565b92915050565b7f4465706f736974206661696c65643a204e6f204554482073656e740000000000600082015250565b6000610630601b83610493565b915061063b826105fa565b602082019050919050565b6000602082019050818103600083015261065f81610623565b9050919050565b7f5769746864726177206661696c65643a204e6f2062616c616e636520746f207760008201527f6974686472617700000000000000000000000000000000000000000000000000602082015250565b60006106c2602783610493565b91506106cd82610666565b604082019050919050565b600060208201905081810360008301526106f1816106b5565b9050919050565b600081905092915050565b50565b60006107136000836106f8565b915061071e82610703565b600082019050919050565b600061073482610706565b9150819050919050565b7f5769746864726177206661696c65643a20556e61626c6520746f2073656e642060008201527f4574686572000000000000000000000000000000000000000000000000000000602082015250565b600061079a602583610493565b91506107a58261073e565b604082019050919050565b600060208201905081810360008301526107c98161078d565b905091905056fea264697066735822122061dbd0be638d46f6da5904b10f2f6cc6d0c3c5e9d1482bcd2c293735229f328e64736f6c634300081c0033",
    "linkReferences": {},
    "deployedLinkReferences": {}
}